:020000040800F2
:1000000080070020D5010008890800084D08000875
:1000100085080008E1030008A30D000800000000A7
:10002000000000000000000000000000090A0008B5
:10003000E503000800000000110900081D0B00087E
:10004000EF010008EF010008EF010008EF010008D0
:10005000EF010008EF010008E9030008EF010008C4
:100060002D040008EF01000871040008EF010008EA
:10007000EF010008EF010008EF010008EF010008A0
:10008000EF010008EF010008EF010008EF01000890
:10009000EF010008EF010008EF010008B5040008B7
:1000A000EF010008EF010008EF010008EF01000870
:1000B000EF010008EF010008EF010008EF01000860
:1000C000EF010008EF010008EF010008EF01000850
:1000D000EF010008810B0008EF010008EF010008A4
:1000E000EF010008EF010008EF010008EF01000830
:1000F000EF010008EF010008EF010008EF01000820
:10010000EF010008EF010008EF010008EF0100080F
:10011000EF010008EF010008EF010008EF010008FF
:10012000EF010008EF010008EF010008EF010008EF
:1001300000F002F800F03FF80AA090E8000C8244BA
:100140008344AAF10107DA4501D100F034F8AFF297
:10015000090EBAE80F0013F0010F18BFFB1A43F0A5
:1001600001031847D00E0000F00E0000103A24BF23
:1001700078C878C1FAD8520724BF30C830C144BF0C
:1001800004680C607047000000230024002500264E
:10019000103A28BF78C1FBD8520728BF30C148BFEA
:1001A0000B607047632900F0AE80002070471FB5D8
:1001B0001FBD10B510BD00F0E1F81146FFF7F7FFC5
:1001C00000F04AFE00F0FFF803B4FFF7F2FF03BCB3
:1001D00000F0E9FD0948804709480047FEE7FEE7CF
:1001E000FEE7FEE7FEE7FEE7FEE7FEE7FEE7FEE7E7
:1001F00004480549054A064B70470000210B0008DA
:1002000031010008800100208007002080030020C9
:1002100080030020704700000FB4044910B503AA02
:10022000029800F07DF810BC5DF814FB1800002067
:100230002DE9F0410E460446002020622046E16888
:10024000884730B3252805D0D4E901219047206A9A
:10025000401CF2E7E168204600278847050018D0D7
:10026000A5F14100192802D820354FF40067324625
:10027000294620462760FFF795FF40B1012804D0AA
:10028000F61D26F007060836D8E7361DD6E72846BD
:10029000DAE7206ABDE8F08170B50C460546012A10
:1002A00005D02878800600D5EA69002302E0012302
:1002B00005E05B1C934202D2E05C0028F9D1A869FA
:1002C000E618C01AA861286A184428622846AFF3C5
:1002D000008004E0D5E9012114F8010B9047B442F5
:1002E000F8D32846AFF3008070BD70477047704761
:1002F000704710B5436913B1AFF3008001E0FFF719
:10030000CBFF012010BD127800F124010A700022F9
:100310004A700122EDE711684FF0FF32E9E7000073
:10032000074B70B50D467B4400F011F80446284693
:1003300000F020F810B14FF0FF3070BD204670BDC6
:10034000130B000001694A1C02610878704700B570
:100350008FB0CDE901310021059105497944CDE9FE
:10036000031011466846FFF763FF0FB000BD0000A1
:10037000E5FFFFFF007B00F080007047754600F04E
:100380002BF8AE4605006946534620F00700854627
:1003900018B020B5FFF72CFFBDE820404FF0000655
:1003A0004FF000074FF000084FF0000B21F007015D
:1003B000AC46ACE8C009ACE8C009ACE8C009ACE8A0
:1003C000C0098D46704710B50446AFF30080204643
:1003D000BDE81040FFF7F8BE00487047200100203C
:1003E00000BFFEE77047000010B5012000F0FAF8EA
:1003F000B8B1C82000F0FCFC01210A4800F019FA4D
:1004000060B10020084908700846007800F0B2FD8D
:1004100000F092FD012000F0DFF802E0012000F082
:10042000DBF810BD001C01401E00002010B50420A8
:1004300000F0D8F8B8B1C82000F0DAFC04210A486E
:1004400000F0F7F960B1012008490870084600780B
:1004500000F090FD00F070FD042000F0BDF802E017
:10046000042000F0B9F810BD001C01401E0000205F
:1004700010B5102000F0B6F8B8B1C82000F0B8FCF4
:1004800010210A4800F0D5F960B10220084908702F
:100490000846007800F06EFD00F04EFD102000F0E0
:1004A0009BF802E0102000F097F810BD001C0140FE
:1004B0001E00002010B5402000F094F8B8B1C8200C
:1004C00000F096FC40210A4800F0B3F960B1032027
:1004D000084908700846007800F04CFD00F02CFD3B
:1004E000402000F079F802E0402000F075F810BDDF
:1004F000001C01401E0000200EB500F0D1F80121C3
:10050000084600F007FA0021052000F0E7F8012076
:10051000019000208DF8080008208DF809000120C6
:100520008DF80A0001A800F071F80221052000F002
:10053000D5F80420019001A800F068F804210520F6
:1005400000F0CCF81020019001A800F05FF806211F
:10055000052000F0C3F84020019001A800F056F8F3
:1005600006208DF8000002208DF8010003208DF890
:10057000020001208DF80300684600F087F908208A
:100580008DF8000002208DF801008DF80200012096
:100590008DF80300684600F079F90A208DF8000014
:1005A00002208DF8010001208DF802008DF8030073
:1005B000684600F06BF917208DF8000002208DF8D6
:1005C000010000208DF8020001208DF8030068462C
:1005D00000F05CF90EBD00000149086070470000A2
:1005E00014040140014600200022074B1B6803EA67
:1005F0000102054B14331B680B4013B10AB10120F3
:1006000000E0002070470000000401400021234961
:100610008279002A3AD00A46126803689A430B4648
:100620001A600A1D126803689A430B1D1A6002794A
:1006300011440A6803681A430A60184A08321268AB
:1006400003689A43154B08331A601A1D1268036831
:100650009A43124B0C331A604279102A0ED11A1F9A
:10066000126803681A430D4B08331A601A1D12688A
:1006700003681A43094B0C331A600DE007494279AD
:1006800011440A6803681A430A6005E002791144BC
:100690000A6803689A430A6070470000000401403A
:1006A00008B50121C02000F035F95520ADF8000053
:1006B00010208DF803006946064800F02FF85520F9
:1006C000ADF8000028208DF803006946024800F0CC
:1006D00025F808BD00180140001C014030B500227B
:1006E0008B071C0F0F2303FA04F20B4B8C1053F8EB
:1006F00024309343084C8D1044F8253023468C1049
:1007000053F824308C07240F00FA04F42343024CDE
:100710008D1044F8253030BD080001402DE9F0412E
:10072000024600250026002000230024002791F81F
:1007300003C00CF00F0591F803C00CF0100CBCF1D5
:10074000000F03D091F802C04CEA050591F800C0F3
:10075000BCF1000F31D0146800202BE04FF0010CE9
:100760000CFA00F3B1F800C00CEA03069E4220D157
:1007700083004FF00F0C0CFA03F7BC4305FA03FC9F
:100780004CEA040491F803C0BCF1280F06D14FF0E5
:10079000010C0CFA00FCC2F814C00AE091F803C086
:1007A000BCF1480F05D14FF0010C0CFA00FCC2F867
:1007B00010C0401C0828D1D31460B1F800C0BCF1AF
:1007C000FF0F34DD546800202EE000F1080C4FF0DC
:1007D000010808FA0CF3B1F800C00CEA03069E42C7
:1007E00021D183004FF00F0C0CFA03F7BC4305FA3C
:1007F00003FC4CEA040491F803C0BCF1280F05D1B6
:1008000000F1080C08FA0CF8C2F8148091F803C043
:10081000BCF1480F07D100F1080C4FF0010808FAAD
:100820000CF8C2F81080401C0828CED35460BDE8F4
:10083000F0810246002093680B400BB1012000E0DC
:1008400000207047416170470161704700BFFEE7BB
:1008500008B50121082000F05DF82020ADF8000067
:1008600010208DF8030003208DF80200694604482B
:10087000FFF754FF20210248FFF7E6FF08BD000004
:10088000000C014000BFFEE77047000070B500217A
:1008900000230F22C47804B3154C246804F4E064E8
:1008A000C4F5E064210AC1F10403CA40447804FAA3
:1008B00003F184781440214309010E4C0678A155B8
:1008C000047804F01F050124AC4005786D11AD00DB
:1008D00005F1E025C5F8004109E0047804F01F05A2
:1008E0000124AC40044D0678761145F8264070BDD1
:1008F0000CED00E000E400E080E100E0024901438B
:10090000024A1160704700000000FA050CED00E09B
:100910007047000029B1064A92690243044B9A616C
:1009200004E0034A92698243014B9A6170470000D8
:100930000010024030B500210022002400232D4D7C
:100940006D6805F00C0121B1042905D0082923D1D7
:1009500005E0294D056022E0274D05601FE0254D8B
:100960006D6805F47012234D6D6805F4803402251E
:1009700005EB92421CB9214D554305600BE01D4D1E
:100980006D6805F400351DB11C4D5543056002E04E
:10099000194D5543056002E0174D056000BF00BFCB
:1009A000144D6D6805F0F0010909154D6B5C056883
:1009B000DD4045600F4D6D6805F4E061090A104D9A
:1009C0006B5C4568DD4085600A4D6D6805F46051DB
:1009D000C90A0B4D6B5C4568DD40C560054D6D680F
:1009E00005F44041890B074D6B5CC568B5FBF3F519
:1009F000056130BD0010024000127A0000093D0080
:100A00004200002052000020704710B500F002F8AC
:100A100010BD00000CB50020019000903348006824
:100A200040F480303149086000BF3048006800F46D
:100A3000003000900198401C0190009818B901986E
:100A4000B0F5A06FF1D12948006800F4003010B172
:100A50000120009001E0002000900098012843D17F
:100A60002348006840F010002149086008460068EB
:100A700020F0030008600846006840F002000860AB
:100A80001A48406819494860084640684860084666
:100A9000406840F4806048600846406820F47C105C
:100AA00048600846406840F4E8104860084600681E
:100AB00040F08070086000BF0C48006800F00070D3
:100AC0000028F9D00948406820F003000749486031
:100AD0000846406840F00200486000BF0348406894
:100AE00000F00C000828F9D10CBD000000100240F5
:100AF00000200240042808D14FF0E021096941F0AC
:100B000004014FF0E022116107E04FF0E021096994
:100B100021F004014FF0E02211617047704700009E
:100B200010B51348006840F00100114908600846FC
:100B30004068104908400E494860084600680E4960
:100B400008400B4908600846006820F480200860CF
:100B50000846406820F4FE0048604FF41F0088609B
:100B6000FFF753FF4FF000600449086010BD00001C
:100B7000001002400000FFF8FFFFF6FE08ED00E065
:100B800010B540F225511D4800F04AF810B31B483B
:100B900000F002F9C4B21A48008800F40040C8B955
:100BA0001748008800F4804060B10A2C03D0002070
:100BB0001349088020E01248008840F400401049A2
:100BC000088019E00D2C06D10D48008840F48040C3
:100BD0000B49088010E00A480088C0F30D0009495D
:100BE0000C5407480088401C0549088008460088C6
:100BF000C72801DD0020088010BD0000003801403A
:100C00001C0000205800002021B1828942F40052CB
:100C1000828104E082894DF6FF731A408281704719
:100C200070B50246002400230025002040F66A1615
:100C3000B14200D100BFC1F3421501F01F030126EC
:100C400006FA03F3012D02D19689334006E0022D06
:100C500002D1168A334001E0968A33400C120126F5
:100C600006FA04F41688344013B10CB1012000E0F8
:100C7000002070BDF0B503460024002600250020AA
:100C800040F66A17B94200D100BF1846C1F34214BA
:100C900001F01F06012707FA06F5012C01D10C30DF
:100CA00004E0022C01D1103000E014301AB10768C2
:100CB0002F43076002E00768AF430760F0BD000004
:100CC0002DE9F04786B005460E460024A24600BF37
:100CD000A1460027B08900B100BF2F462C8A4CF6F0
:100CE000FF700440F08804432C82AC894EF6F31068
:100CF0000440B08831890843718908430443AC81BA
:100D0000AC8A4FF6FF400440B0890443AC8201A88E
:100D1000FFF710FE1F48874202D1DDF810A001E066
:100D2000DDF80CA0A88900F4004040B10AEBCA002D
:100D300000EB0A1031684900B0FBF1F807E00AEB5C
:100D4000CA0000EB0A1031688900B0FBF1F864209A
:100D5000B8FBF0F004012009642101FB1089A88987
:100D600000F4004040B1322000EBC900B0FBF1F0CC
:100D700000F00700044308E0322000EB0910642172
:100D8000B0FBF1F000F00F0004432C8106B0BDE889
:100D9000F08700000038014001468888C0F3080051
:100DA000704700BFFEE7014600BF704710B56FF007
:100DB0000400FFF79FFE0A4800680A49B0FBF1F003
:100DC000094908700846007800EB4001C1EBC010EB
:100DD0004FF6FF7101EAC0000449088010BD000011
:100DE0000000002000127A001400002016000020ED
:100DF0000146114A12884A434FF0E0235A6100220B
:100E00009A611A46126942F001021A6100BF4FF05E
:100E1000E022106900F001021AB100F48032002AC9
:100E2000F5D04FF0E022126922F001024FF0E023EA
:100E30001A6100229A6170471600002000BF054A1F
:100E4000128802F04002002AF9D0C2B2014B1B1DE9
:100E50001A80704700380140FFF7A8FF4FF4A060E8
:100E6000FFF74CFDFFF7F4FCFFF746FB4FF4E130D2
:100E700000F090F800F060F809E04FF4FA70FFF726
:100E8000B7FF03480068C0430249C1F89401F4E782
:100E9000948121420080214210B50446002020495F
:100EA00008700CE01F481E4A127830F812101E48D5
:100EB000FFF7C8FC1A480078401C19490870184808
:100EC00000780428EEDB00201549087022E0154860
:100ED000134A127830F812101348FFF7B5FC134884
:100EE00030F814101248FFF7A4FC30B111480C4937
:100EF000097800EB8100005D10BD0A48084A1278AD
:100F000030F812100848FFF79DFC05480078401C97
:100F100003490870024800780428D8DB4520EBE735
:100F20002000002022000020001801402A0000209C
:100F3000001C01403200002010B500200A49087052
:100F40000CE00A48084A127830F812100848FFF7F7
:100F50007BFC05480078401C034908700248007873
:100F60000428EEDB10BD000020000020220000203D
:100F70000018014070B504462046FFF78DFF054676
:100F8000294602A0FFF748F970BD000025630D0A4D
:100F90000000000010B586B00446012144F20400B0
:100FA000FFF7B8FC4FF40070ADF8140003208DF883
:100FB000160018208DF8170005A91C48FFF7AEFB96
:100FC0004FF48060ADF8140004208DF8170005A9D7
:100FD0001648FFF7A3FB25208DF8000003208DF8AD
:100FE00001008DF8020001208DF803006846FFF72C
:100FF0004DFC01940020ADF80800ADF80A00ADF8F2
:101000000C00ADF810000C20ADF80E0001A9084846
:10101000FFF756FE012240F225510548FFF72AFE50
:1010200001210348FFF7F0FD06B010BD00080140A4
:101030000038014054100008000000205800000053
:101040006C010008AC1000085800002028070000C0
:101050008801000800A24A0400000000000000000F
:101060000102030406070809000000000000000058
:10107000000000000000010004001000400001001A
:1010800004001000400031323341343536423738E5
:1010900039432A3023440000000001020304010206
:0C10A0000304060708090204060800000B
:04000005080001D519
:00000001FF
